:100903000A0B3F065B4F666D7D077F6F0108000191
:050913000900010A00CB
:1008E300E4FDFCC3ED9FEC9E5015E4FBFA0BBB004B
:0F08F300010AEB647B4A70F50DBD00010C80E437
:0109020022D2
:10088C00E4F580E4F5A0740B2508F8E6F5807F020A
:10089C007E001208E375A004740B2509F8E6F580B8
:1008AC001208E375A008740B250AF8E6F580120807
:1008BC00E30508E50864097015F5080509E5096400
:1008CC0009700BF509050AE50A7003750A097F140E
:0708DC007E001208E380AC6E
:03000000020800F3
:0C080000787FE4F6D8FD758114020847EB
:10080C0002088CE493A3F8E493A34003F68001F26E
:10081C0008DFF48029E493A3F85407240CC8C333ED
:10082C00C4540F4420C8834004F456800146F6DFBC
:10083C00E4800B0102040810204080900903E47E40
:10084C00019360BCA3FF543F30E509541FFEE493B1
:10085C00A360010ECF54C025E060A840B8E493A378
:10086C00FAE493A3F8E493A3C8C582C8CAC583CAA3
:10087C00F0A3C8C582C8CAC583CADFE9DEE780BE5B
:0109180000DE
:00000001FF
