:100B5C000D0A3D3D3D3D3D205452414E47205448E9
:100B6C004149203D3D3D3D3D0D0A002D2054726113
:100B7C006E6720746861692064656E204F4646205C
:100B8C000D0A002D205472616E6720746861692013
:100B9C0064656E204F4E200D0A002D205472616E3C
:100BAC006720746861692071756174204F46462016
:100BBC000D0A002D205472616E67207468616920E3
:100BCC0071756174204F4E200D0A002D20547261F6
:100BDC006E672074686169206D61796C616E682044
:100BEC004F4646200D0A002D205472616E6720740A
:100BFC00686169206D61796C616E68204F4E200DC3
:100C0C000A003D3D3D3D3D3D3D3D3D3D3D3D3D3D78
:100C1C003D3D3D3D3D3D3D3D3D3D3D3D3D3D3D3DF8
:100C2C003D3D0D0A000D0A3D3D3D3D3D44494555B8
:100C3C00204B4849454E20434855204B59204C45A4
:100C4C00443D3D3D3D3D0D0A004E6861702063689A
:100C5C0075206B79202856443A20323030302C20C5
:100C6C003331302C20353029202B206E68616E20DA
:100C7C00656E746572206D73200D0A000D0A536544
:100C8C0074204F4B0D0A000D0A5365742063687570
:100C9C00206B79203D2000257500206D730D0A0016
:1010AA00022C03E802400000022A0000022F00007E
:1010BA00023E0000013100012E000A343F065B4F58
:0A10CA00666D7D077F6F02220000B3
:10115C0075985053890F438920758DFDD28ED29985
:01116C002260
:081196003099FDC2998F9922E6
:10113600120CACFF600C121196740129F9E43AFA0C
:0311460080EE2216
:100EE7007BFF7A0B795C121136E52B452A70067A5F
:100EF7000B797780067BFF7A0B798F121136E530F5
:100F0700452F7BFF70067A0B79A680047A0B79BF91
:100F1700121136E53F453E7BFF70067A0B79D78085
:100F2700047A0B79F31211367BFF7A0C790E1211C2
:0F0F3700367A0C79311211367A0C79550211364F
:0C118A00120EE77BFF7A0C798802113608
:0300030002105098
:10105000C0E0C083C082C0D075D000C001C002C053
:1010600003C007632BFF632AFF12118AD007D00346
:0D107000D002D001D0D0D082D083D0E032A9
:0300130002107D5B
:10107D00C0E0C083C082C0D075D000C001C002C026
:10108D0003C0076330FF632FFF12118AD007D0030F
:0D109D00D002D001D0D0D082D083D0E0327C
:1010FC00E4FDFCC3ED9FEC9E5015E4FBFA0BBB002A
:0F110C00010AEB647B4A70F50DBD00010C80E415
:01111B0022B1
:10111C0020B4167F147E001210FC20B40C633FFF29
:0A112C00633EFF12118A30B4FD2269
:101021008F08A905EB700FE50825E025E0F5A07410
:101031003429F8E6800FE50825E025E0F5A07434B1
:0F10410029F8E64480F5807F017E001210FC2222
:03000B0002114996
:10114900C0E0758CFC758A660541E5417002054071
:03115900D0E032B1
:0E117C00438901758CFC758A66D2A9D28C223B
:0E116D00E4FFFE0FBF00010EEF64C84E70F5E8
:01117B002251
:060F46008B098A0A890BE9
:100F4C00E4F50CF50DAB09AA0AA90B120CACFF6069
:100F5C00423395E0FEC3EF9430EE648094804033CE
:100F6C00D3EF9439EE648094805028EF24D0FBEEBC
:100F7C0034FFFAAE0CAF0D7C007D0A120CC5EF2BC2
:100F8C00F50DEE3AF50C7401250BF50BE4350AF56D
:070F9C000A80B2AE0CAF0D9C
:010FA300222B
:100FA4007B007A007924120F46AD07AC06ECC3131C
:100FB400F52CED13F52D7BFF7A0C79931211368BFA
:100FC4000C750D0C750EA38C0F8D107B007A0079B7
:100FD4002412085C7B007A0079241211367BFF7A94
:060FE4000C79A602113693
:030FEA0030983309
:100FED00C298859908E508640D6005E508B40A0EF8
:100FFD007424252EF8E4F6120FA4E4F52E22C3E591
:10100D002E940574809480500AAF2E052E74242FD3
:03101D00F8A6082A
:0110200022AD
:100DA10012115C120EE7E4F53EF53FF52FF530F533
:100DB1002AF52BC290D288D28AD2A8D2AAD2AF1257
:100DC100117C12111C12116D0523E52370020522FD
:100DD100120FEAAE2CAF2D7C007D0A120CD7C3E5B1
:100DE100239FE5229E4007B290E4F522F523852C4E
:100DF10032852D33AE32AF337C007D0A120CD7E43D
:100E0100FBFF121021AE32AF337C007D0A120CD7EA
:100E11008E328F337C007D0A120CD7E4FB7F0112E6
:100E21001021AE32AF337C007D0A120CD78E328F87
:100E3100337C007D0A120CD7E4FB7F02121021AE35
:100E410032AF337C007D0A120CD78E328F33AD3333
:0A0E5100E4FB7F03121021020DC321
:03000000020E5B92
:0C0E5B00787FE4F6D8FD758141020EA2FC
:100CAC00BB010689828A83E0225002E722BBFE0246
:090CBC00E32289828A83E4932279
:100CC500EF8DF0A4A8F0CF8CF0A428CE8DF0A42E43
:020CD500FE22FD
:100CD700BC000BBE0029EF8DF084FFADF022E4CC01
:100CE700F875F008EF2FFFEE33FEEC33FCEE9DECCA
:100CF700984005FCEE9DFE0FD5F0E9E4CEFD22ED10
:100D0700F8F5F0EE8420D21CFEADF075F008EF2F59
:100D1700FFED33FD4007985006D5F0F222C398FD4A
:050D27000FD5F0EA22E7
:10080000E518240CF8E60518227809300702780C60
:10081000E475F001120D6B020CAC2000EB7F2ED2C0
:10082000008018EF540F2490D43440D4FF30040BD0
:10083000EF24BFB41A0050032461FFE519600215CC
:1008400019051CE51C7002051B30070D7809E475BD
:10085000F001120D6BEF020D590210D57403D2078F
:100860008003E4C207F5188B098A0A890BE4F5199D
:10087000F51BF51CE51960077F2012083B80F57514
:100880001AFFC201C200C202C203C205C206C208E8
:10089000120809FF700D3007057F0012084CAF1CCD
:1008A000AE1B22B4255FC2D5C204120809FF24D0B2
:1008B000B40A00501A75F00A781930D50508B6FF49
:1008C0000106C6A426F620D5047002D20380D924DE
:1008D000CFB41A00EF5004C2E5D204020A4CD20190
:1008E00080C6D20080C0D20280BCD2D580BAD205E8
:1008F00080B47F2012083B2002077401B519004024
:10090000F1120800FF12083B020874D208D20680D8
:1009100095120800FB120800FA120800F94A4B7001
:1009200006791D7A0B7BFF20022EE519602A7E00D6
:100930008E82758300120D2C60060EEE651A70F023
:10094000C2D5EBC0E0EAC0E0E9C0E0EE120A93D005
:10095000E0F9D0E0FAD0E0FB120CACFF60AAEBC0EB
:10096000E0EAC0E0E9C0E012083BD0E02401F9D0A1
:10097000E03400FAD0E0FBE51A0460DCD51AD98037
:10098000877BFF7A0A798FD202809C791080027966
:1009900008C206C2088008D2D5790A8004790AC242
:1009A000D5E51A047002F51AE4FAFDFEFF120800FC
:1009B000FC7B08200113120800FD7B1030000A1296
:1009C0000800FE120800FF7B20EC3382D592D55040
:1009D00013C3E43000069FFFE49EFEE42001039D64
:1009E000FDE49CFCE4CBF8C201EC700CCFCECDCC86
:1009F000E824F8F870F38017C3EF33FFEE33FEED11
:100A000033FDEC33FCEB33FB994002FB0FD8E9EBF1
:100A1000300105F8D0E0C448B201C0E00AEC4D4E08
:100A20004F78207B0070C2EAB51A0040BCC0E012CB
:100A30000A95D0F0D0E0200104C4C0E0C4B201C0E7
:100A4000F0120824D0F0D5F0EB020874120D7B09E7
:100A50001153098B5808E24C08DE42098F4F099761
:0F0A60004409974908F743099D550981460981C3
:100A6F00450981470B3D5008E62D08EA2E090D2B4D
:100A7F0008EE23090B200B262A08A64800000905BB
:100A8F003F3F3F00790AA2D5200314300509B91062
:100A9F00020404B9080104A2D52006025001042063
:100AAF0002689202B519005034C0E07F203003195C
:100ABF007F30A20272067205500F120AECC202C2F8
:100ACF0006C205C2087F30800F300503E9C0E0126F
:100ADF00083B300503D0E0F9D0E0B519CC3005174D
:100AEF007F30B9100C12083B7F583004077F788095
:100AFF0003B9080312083B3002057F2D02083B7F24
:100B0F00202008F87F2B2006F322920280CF286E38
:100B1F00756C6C2900D2011208003001F8C20178FF
:100B2F001930D50108F60208A62D5043495812086E
:100B3F00002403B405004001E4900B389312082CF5
:0D0B4F00743A12082CD20375190402098BA8
:100E6700020DA1E493A3F8E493A34003F68001F2F3
:100E770008DFF48029E493A3F85407240CC8C3338C
:100E8700C4540F4420C8834004F456800146F6DF5B
:100E9700E4800B01020408102040809010AAE47E31
:100EA700019360BCA3FF543F30E509541FFEE49350
:100EB700A360010ECF54C025E060A840B8E493A317
:100EC700FAE493A3F8E493A3C8C582C8CAC583CA42
:100ED700F0A3C8C582C8CAC583CADFE9DEE780BEFA
:0110D400001B
:100D2C00BB010CE58229F582E5833AF583E022507C
:100D3C0006E92582F8E622BBFE06E92582F8E222C6
:0D0D4C00E58229F582E5833AF583E49322E0
:100D5900BB010689828A83F0225002F722BBFE0179
:020D6900F32273
:100D6B00FAE6FB0808E6F925F0F618E6CA3AF62289
:100D7B00D083D082F8E4937012740193700DA3A307
:100D8B0093F8740193F5828883E47374029368601B
:060D9B00EFA3A3A380DF1B
:1010D500EFB40A07740D1210E0740A309811A8993C
:1010E500B8130CC2983098FDA899C298B811F6307B
:0710F50099FDC299F5992253
:00000001FF
