:100903000D0A4D4F44452030303A204E4F524D4151
:100913004C2033204C45440D0A000D0A4D4F4445ED
:100923002030313A2053414E472044414E0D0A00B6
:100933000D0A4D4F44452030323A20424C494E4B2C
:100943002038204C414E0D0A000D0A4C454E4820DC
:10095300534149212044554E473A203030202F201F
:100963003031202F2030320D0A000D0A3D3D3D204D
:1009730044494555204B4849454E204C4544205158
:1009830055412055415254203D3D3D0D0A004E68CE
:100993006170206C656E68202856443A2030302CF4
:0A09A3002030312C3032290D0A00FB
:100BBB000208006402270000011A0001140001134F
:100BCB0000021500000A1D3F065B4F666D7D077F17
:0C0BDB006F090AFFFEFCF8F0E0C080008B
:03000B00020C5193
:100C5100C0E0758CFC758A660528E52870020527B9
:030C6100D0E032AE
:0E0C8800438901758CFC758A66D2A9D28C2234
:040C0D00AF09AE0875
:100C1100E4FDFCC3ED9FEC9E5015E4FBFA0BBB0019
:0F0C2100010AEB647B4A70F50DBD00010C80E405
:010C300022A1
:03000300020B5B92
:100B5B00C0E0C0D075D000C002C003C004C005C047
:100B6B0006C007C292C291C290AF09AE08120C1117
:100B7B00D007D006D005D004D003D002D0D0D0E01F
:010B8B003237
:03001300020BE8F5
:100BE800C0E0C0D074642509F509E43508F508D3D8
:100BF800E5099484E50894034006750800750964BE
:050C0800D0D0D0E03265
:100B8C008F2AA905EB700FE52A25E025E0F5A07466
:100B9C001D29F8E6800FE52A25E025E0F5A0741D57
:0F0BAC0029F8E64480F5807F017E00120C1122AB
:100B2900E4F529C3E5299409748094805023740A53
:100B39002529F8E6F590AE08AF097C037DE8120A8D
:100B490052AD07E4FB7F05120B8C120C0D052980B1
:010B5900D2C9
:010B5A002278
:100AF600E4F529C3E5299408748094805024E4F52C
:100B060090AE08AF097C037DE8120A52AD07E4FBFC
:100B16007F05120B8C120C0D7590FF120C0D05291A
:020B260080D17C
:010B280022AA
:100C770075985053890F438920758DFDD28ED2996F
:010C8700224A
:080C96003099FDC2998F9922EB
:100C6400120A39FF600C120C96740129F9E43AFA5D
:030C740080EE22ED
:100AA700E517B43016E518B43011E4F514F513F56D
:100AB70015F5167BFF7A0979038030E517B43010F6
:100AC700E518B4310B7514017BFF7A09791D801B7A
:100AD700E517B43010E518B4320B7514027BFF7AB2
:0F0AE70009793380067BFF7A09794C120C64225F
:100C310030981CC2987417251AF8A699051AC3E5AD
:100C41001A9402748094804006120AA7E4F51A22CD
:10080000D292D291D290D288D28AD2A8D2AAD2AF92
:10081000D2AF120C88120C777BFF7A09796D120C1B
:10082000647A097991120C64120C31E51414700386
:100830000208F71470030208FD240270EBC3E528D8
:100840009401E527940040E0E4F527F5280516E536
:1008500016700205150528E52870020527E5131412
:10086000602514604424027077C290D291D292C362
:10087000E51694F4E51594014008E4F515F51675B0
:100880001301C374F4803DC291D290D292C3E51695
:1008900094C8E51594004008E4F515F516751302A3
:1008A000C374C89516FFE48020C292D290D291C33F
:1008B000E516942CE51594014007E4F515F516F5B9
:1008C00013C3742C9516FF74019515FE7C007D648E
:1008D000120A528E1B8F1CAD1CE4FB7F07120B8C7F
:1008E000AE08AF097C007D64120A52AD07E4FB7FBD
:1008F00005120B8C020828120B29020828120AF68E
:03090000020828C2
:030000000209AD45
:0C09AD00787FE4F6D8FD75812A0209F479
:100A3900BB010689828A83E0225002E722BBFE02BB
:090A4900E32289828A83E49322EE
:100A5200BC000BBE0029EF8DF084FFADF022E4CC88
:100A6200F875F008EF2FFFEE33FEEC33FCEE9DEC51
:100A7200984005FCEE9DFE0FD5F0E9E4CEFD22ED97
:100A8200F8F5F0EE8420D21CFEADF075F008EF2FE1
:100A9200FFED33FD4007985006D5F0F222C398FDD2
:050AA2000FD5F0EA226F
:1009B900020800E493A3F8E493A34003F68001F24C
:1009C90008DFF48029E493A3F85407240CC8C3333F
:1009D900C4540F4420C8834004F456800146F6DF0E
:1009E900E4800B0102040810204080900BBBE47ED8
:1009F900019360BCA3FF543F30E509541FFEE49303
:100A0900A360010ECF54C025E060A840B8E493A3C9
:100A1900FAE493A3F8E493A3C8C582C8CAC583CAF4
:100A2900F0A3C8C582C8CAC583CADFE9DEE780BEAC
:010BE700000D
:00000001FF
