:1008D6000D0A536574204F4B0D0A000D0A3D3D3D30
:1008E6002044494555204B4849454E204C45442017
:1008F6005155412055415254203D3D3D0D0A004E73
:10090600686170206C656E68202856443A20302C49
:09091600312C322C33290D0A00AA
:1009CB00011E00011D000A1F3F065B4F666D7D0770
:1009DB007F6F0812000102030405060701110009CD
:0A09EB0008FFFEFCF8F0E0C08000F9
:10099900740829F8E6F590AF01AD1E120AEB7FC87D
:0209A9007E00CE
:1009AB00E4FDFCC3ED9FEC9E5015E4FBFA0BBB0082
:0F09BB00010AEB647B4A70F50DBD00010C80E46E
:0109CA00220A
:03000B0002091FC8
:09091F00C0E0C0D075D000C0009A
:10092800758CF8758A30758000C3E511940274805F
:1009380094805018E51125E025E0F5A074122511E2
:0F094800F8E6241FF8E6F580051180037511000D
:07095700D000D0D0D0E03247
:050AEB008F128D1322A3
:100A7F00E4F580F5115389F0438901758CF8758A77
:070A8F003075A882D28C2211
:100A3200851E29E4F9E9C3940974809480500BE57A
:0A0A42001EB529061209990980EB80
:010A4C002287
:100A1600851E297908E93395E0C364809480400BEC
:0B0A2600E51EB529061209991980EAA7
:010A310022A2
:10095E00851E29E4F9E9C3940874809480502BE530
:10096E001E65297025F590AD1EFF120AEB7FC8FE9D
:10097E001209ABE51EB529127590FFAD1E7F081248
:0A098E000AEB7FC81209AB0980CB09
:01099800223C
:03000300020A4DA1
:100A4D00C0E0C0D0051ED3E51E9403748094804091
:090A5D0003751E00D0D0D0E03278
:03001300020AA935
:100AA900C0E0C0D0E51E24035403F51ED0D0D0E029
:010AB900320A
:100ABA0075985053890F438920758DFDD28ED2992E
:010ACA002209
:080AE3003099FDC2998F9922A0
:100A9600120A66FF600C120AE3740129F9E43AFAB5
:030AA60080EE22BD
:0F0ACB00E51A24D0F51E7BFF7A0879D6020A9629
:1009F60030981CC298741A251DF8A699051DC3E5E2
:100A06001D9401748094804006120ACBE4F51D22E1
:090ADA00120A32120A1602095E2A
:10088C00120ABA7BFF7A0879E1120A967A0979057D
:10089C00120A96120A7FD288D28AD2A8D2AAD2AFD2
:1008AC00E4F51E1209F6E51E7003120ADAE51E6461
:1008BC00017003120A32E51E64027003120A16E577
:0A08CC001E640370DE12095E80D97D
:03000000020800F3
:0C080000787FE4F6D8FD758129020847D6
:100A6600BB010689828A83E0225002E722BBFE028E
:090A7600E32289828A83E49322C1
:10080C0002088CE493A3F8E493A34003F68001F26E
:10081C0008DFF48029E493A3F85407240CC8C333ED
:10082C00C4540F4420C8834004F456800146F6DFBC
:10083C00E4800B01020408102040809009CBE47E78
:10084C00019360BCA3FF543F30E509541FFEE493B1
:10085C00A360010ECF54C025E060A840B8E493A378
:10086C00FAE493A3F8E493A3C8C582C8CAC583CAA3
:10087C00F0A3C8C582C8CAC583CADFE9DEE780BE5B
:0109F5000001
:00000001FF
